{
  "contractName": "ERC725Account",
  "abi": [
    {
      "inputs": [
        {
          "internalType": "address",
          "name": "_newOwner",
          "type": "address"
        }
      ],
      "stateMutability": "nonpayable",
      "type": "constructor"
    },
    {
      "anonymous": false,
      "inputs": [
        {
          "indexed": true,
          "internalType": "address",
          "name": "contractAddress",
          "type": "address"
        }
      ],
      "name": "ContractCreated",
      "type": "event"
    },
    {
      "anonymous": false,
      "inputs": [
        {
          "indexed": true,
          "internalType": "bytes32",
          "name": "key",
          "type": "bytes32"
        },
        {
          "indexed": false,
          "internalType": "bytes",
          "name": "value",
          "type": "bytes"
        }
      ],
      "name": "DataChanged",
      "type": "event"
    },
    {
      "anonymous": false,
      "inputs": [
        {
          "indexed": true,
          "internalType": "uint256",
          "name": "_operation",
          "type": "uint256"
        },
        {
          "indexed": true,
          "internalType": "address",
          "name": "_to",
          "type": "address"
        },
        {
          "indexed": true,
          "internalType": "uint256",
          "name": "_value",
          "type": "uint256"
        },
        {
          "indexed": false,
          "internalType": "bytes",
          "name": "_data",
          "type": "bytes"
        }
      ],
      "name": "Executed",
      "type": "event"
    },
    {
      "anonymous": false,
      "inputs": [
        {
          "indexed": true,
          "internalType": "address",
          "name": "previousOwner",
          "type": "address"
        },
        {
          "indexed": true,
          "internalType": "address",
          "name": "newOwner",
          "type": "address"
        }
      ],
      "name": "OwnershipTransferred",
      "type": "event"
    },
    {
      "anonymous": false,
      "inputs": [
        {
          "indexed": true,
          "internalType": "address",
          "name": "from",
          "type": "address"
        },
        {
          "indexed": true,
          "internalType": "bytes32",
          "name": "typeId",
          "type": "bytes32"
        },
        {
          "indexed": true,
          "internalType": "bytes",
          "name": "returnedValue",
          "type": "bytes"
        },
        {
          "indexed": false,
          "internalType": "bytes",
          "name": "receivedData",
          "type": "bytes"
        }
      ],
      "name": "UniversalReceiver",
      "type": "event"
    },
    {
      "anonymous": false,
      "inputs": [
        {
          "indexed": true,
          "internalType": "address",
          "name": "sender",
          "type": "address"
        },
        {
          "indexed": true,
          "internalType": "uint256",
          "name": "value",
          "type": "uint256"
        }
      ],
      "name": "ValueReceived",
      "type": "event"
    },
    {
      "inputs": [
        {
          "internalType": "bytes32[]",
          "name": "_keys",
          "type": "bytes32[]"
        }
      ],
      "name": "getData",
      "outputs": [
        {
          "internalType": "bytes[]",
          "name": "values",
          "type": "bytes[]"
        }
      ],
      "stateMutability": "view",
      "type": "function"
    },
    {
      "inputs": [
        {
          "internalType": "bytes32",
          "name": "_hash",
          "type": "bytes32"
        },
        {
          "internalType": "bytes",
          "name": "_signature",
          "type": "bytes"
        }
      ],
      "name": "isValidSignature",
      "outputs": [
        {
          "internalType": "bytes4",
          "name": "magicValue",
          "type": "bytes4"
        }
      ],
      "stateMutability": "view",
      "type": "function"
    },
    {
      "inputs": [],
      "name": "owner",
      "outputs": [
        {
          "internalType": "address",
          "name": "",
          "type": "address"
        }
      ],
      "stateMutability": "view",
      "type": "function"
    },
    {
      "inputs": [],
      "name": "renounceOwnership",
      "outputs": [],
      "stateMutability": "nonpayable",
      "type": "function"
    },
    {
      "inputs": [
        {
          "internalType": "bytes4",
          "name": "interfaceId",
          "type": "bytes4"
        }
      ],
      "name": "supportsInterface",
      "outputs": [
        {
          "internalType": "bool",
          "name": "",
          "type": "bool"
        }
      ],
      "stateMutability": "view",
      "type": "function"
    },
    {
      "inputs": [
        {
          "internalType": "address",
          "name": "newOwner",
          "type": "address"
        }
      ],
      "name": "transferOwnership",
      "outputs": [],
      "stateMutability": "nonpayable",
      "type": "function"
    },
    {
      "inputs": [
        {
          "internalType": "bytes32",
          "name": "_typeId",
          "type": "bytes32"
        },
        {
          "internalType": "bytes",
          "name": "_data",
          "type": "bytes"
        }
      ],
      "name": "universalReceiver",
      "outputs": [
        {
          "internalType": "bytes",
          "name": "returnValue",
          "type": "bytes"
        }
      ],
      "stateMutability": "nonpayable",
      "type": "function"
    },
    {
      "stateMutability": "payable",
      "type": "receive"
    },
    {
      "inputs": [
        {
          "internalType": "uint256",
          "name": "_operation",
          "type": "uint256"
        },
        {
          "internalType": "address",
          "name": "_to",
          "type": "address"
        },
        {
          "internalType": "uint256",
          "name": "_value",
          "type": "uint256"
        },
        {
          "internalType": "bytes",
          "name": "_data",
          "type": "bytes"
        }
      ],
      "name": "execute",
      "outputs": [
        {
          "internalType": "bytes",
          "name": "result",
          "type": "bytes"
        }
      ],
      "stateMutability": "payable",
      "type": "function"
    },
    {
      "inputs": [
        {
          "internalType": "bytes32[]",
          "name": "_keys",
          "type": "bytes32[]"
        },
        {
          "internalType": "bytes[]",
          "name": "_values",
          "type": "bytes[]"
        }
      ],
      "name": "setData",
      "outputs": [],
      "stateMutability": "nonpayable",
      "type": "function"
    }
  ],
  "bytecode": "0x60806040523480156200001157600080fd5b5060405162003cce38038062003cce833981810160405281019062000037919062000432565b8080816200004a620001d460201b60201c565b73ffffffffffffffffffffffffffffffffffffffff168173ffffffffffffffffffffffffffffffffffffffff161462000094576200009381620001fd60201b62000b331760201c565b5b620000c57f44c028fe000000000000000000000000000000000000000000000000000000006200027f60201b60201c565b50620000d6620001d460201b60201c565b73ffffffffffffffffffffffffffffffffffffffff168173ffffffffffffffffffffffffffffffffffffffff161462000120576200011f81620001fd60201b62000b331760201c565b5b620001517f5a988c0f000000000000000000000000000000000000000000000000000000006200027f60201b60201c565b50506200016b6363cb749b60e01b6200027f60201b60201c565b6200019c7f1626ba7e000000000000000000000000000000000000000000000000000000006200027f60201b60201c565b620001cd7f6bb56a14000000000000000000000000000000000000000000000000000000006200027f60201b60201c565b50620005c7565b60008060009054906101000a900473ffffffffffffffffffffffffffffffffffffffff16905090565b600060149054906101000a900460ff161562000250576040517f08c379a00000000000000000000000000000000000000000000000000000000081526004016200024790620004ac565b60405180910390fd5b6001600060146101000a81548160ff0219169083151502179055506200027c816200035760201b60201c565b50565b63ffffffff60e01b817bffffffffffffffffffffffffffffffffffffffffffffffffffffffff19161415620002eb576040517f08c379a0000000000000000000000000000000000000000000000000000000008152600401620002e290620004ce565b60405180910390fd5b6001806000837bffffffffffffffffffffffffffffffffffffffffffffffffffffffff19167bffffffffffffffffffffffffffffffffffffffffffffffffffffffff1916815260200190815260200160002060006101000a81548160ff02191690831515021790555050565b60008060009054906101000a900473ffffffffffffffffffffffffffffffffffffffff169050816000806101000a81548173ffffffffffffffffffffffffffffffffffffffff021916908373ffffffffffffffffffffffffffffffffffffffff1602179055508173ffffffffffffffffffffffffffffffffffffffff168173ffffffffffffffffffffffffffffffffffffffff167f8be0079c531659141344cd1fd0a4f28419497f9722a3daafe3b4186f6b6457e060405160405180910390a35050565b6000815190506200042c81620005ad565b92915050565b6000602082840312156200044557600080fd5b600062000455848285016200041b565b91505092915050565b60006200046d602983620004f0565b91506200047a8262000535565b604082019050919050565b600062000494601c83620004f0565b9150620004a18262000584565b602082019050919050565b60006020820190508181036000830152620004c7816200045e565b9050919050565b60006020820190508181036000830152620004e98162000485565b9050919050565b600082825260208201905092915050565b60006200050e8262000515565b9050919050565b600073ffffffffffffffffffffffffffffffffffffffff82169050919050565b7f4f776e61626c653a206f776e65722063616e206f6e6c7920626520696e69746960008201527f61746564206f6e63650000000000000000000000000000000000000000000000602082015250565b7f4552433136353a20696e76616c696420696e7465726661636520696400000000600082015250565b620005b88162000501565b8114620005c457600080fd5b50565b6136f780620005d76000396000f3fe60806040526004361061008a5760003560e01c80634e3e6e9c116100595780634e3e6e9c146101b45780636bb56a14146101f1578063715018a61461022e5780638da5cb5b14610245578063f2fde38b14610270576100dc565b806301ffc9a7146100e157806314a6e2931461011e5780631626ba7e1461014757806344c028fe14610184576100dc565b366100dc5734610098610299565b73ffffffffffffffffffffffffffffffffffffffff167f7e71433ddf847725166244795048ecf3e3f9f35628254ecbf73605666423349360405160405180910390a3005b600080fd5b3480156100ed57600080fd5b506101086004803603810190610103919061241f565b6102a1565b6040516101159190612aaa565b60405180910390f35b34801561012a57600080fd5b50610145600480360381019061014091906122de565b610319565b005b34801561015357600080fd5b5061016e600480360381019061016991906123cb565b6103a3565b60405161017b9190612b3a565b60405180910390f35b61019e600480360381019061019991906124f3565b610509565b6040516101ab9190612b79565b60405180910390f35b3480156101c057600080fd5b506101db60048036038101906101d6919061229d565b61059f565b6040516101e89190612a88565b60405180910390f35b3480156101fd57600080fd5b5061021860048036038101906102139190612373565b6106ca565b6040516102259190612b79565b60405180910390f35b34801561023a57600080fd5b5061024361098a565b005b34801561025157600080fd5b5061025a610a12565b6040516102679190612a2d565b60405180910390f35b34801561027c57600080fd5b5061029760048036038101906102929190612274565b610a3b565b005b600033905090565b60006102ac82610baa565b80610312575060016000837bffffffffffffffffffffffffffffffffffffffffffffffffffffffff19167bffffffffffffffffffffffffffffffffffffffffffffffffffffffff1916815260200190815260200160002060009054906101000a900460ff165b9050919050565b610321610299565b73ffffffffffffffffffffffffffffffffffffffff1661033f610a12565b73ffffffffffffffffffffffffffffffffffffffff1614610395576040517f08c379a000000000000000000000000000000000000000000000000000000000815260040161038c90612d46565b60405180910390fd5b61039f8282610c14565b5050565b60006103b56103b0610a12565b610c9e565b1561048e576103e37f1626ba7e000000000000000000000000000000000000000000000000000000006102a1565b6103f45763ffffffff60e01b610487565b6103fc610a12565b73ffffffffffffffffffffffffffffffffffffffff16631626ba7e84846040518363ffffffff1660e01b8152600401610436929190612ac5565b60206040518083038186803b15801561044e57600080fd5b505afa158015610462573d6000803e3d6000fd5b505050506040513d601f19601f820116820180604052508101906104869190612448565b5b9050610503565b6104988383610cab565b73ffffffffffffffffffffffffffffffffffffffff166104b6610a12565b73ffffffffffffffffffffffffffffffffffffffff16146104de5763ffffffff60e01b610500565b7f1626ba7e000000000000000000000000000000000000000000000000000000005b90505b92915050565b6060610513610299565b73ffffffffffffffffffffffffffffffffffffffff16610531610a12565b73ffffffffffffffffffffffffffffffffffffffff1614610587576040517f08c379a000000000000000000000000000000000000000000000000000000000815260040161057e90612d46565b60405180910390fd5b6105948686868686610cd2565b905095945050505050565b6060815167ffffffffffffffff8111156105e2577f4e487b7100000000000000000000000000000000000000000000000000000000600052604160045260246000fd5b60405190808252806020026020018201604052801561061557816020015b60608152602001906001900390816106005790505b50905060005b82518110156106c45761066d838281518110610660577f4e487b7100000000000000000000000000000000000000000000000000000000600052603260045260246000fd5b6020026020010151610d68565b8282815181106106a6577f4e487b7100000000000000000000000000000000000000000000000000000000600052603260045260246000fd5b602002602001018190525080806106bc90613170565b91505061061b565b50919050565b606060003073ffffffffffffffffffffffffffffffffffffffff1673__ERC725Utils___________________________63d177d9c890917f0cfc51aec37c55a4d0b1a65c6255c4bf2fbdf6277f3cc0730c45b828b6db8b4760001b6040518363ffffffff1660e01b8152600401610742929190612b9b565b60006040518083038186803b15801561075a57600080fd5b505af415801561076e573d6000803e3d6000fd5b505050506040513d6000823e3d601f19601f820116820180604052508101906107979190612471565b90506040518060200160405280600081525091506014815114156109145760006107c2826000610e0d565b90508073ffffffffffffffffffffffffffffffffffffffff166301ffc9a77fc2d7bcc1000000000000000000000000000000000000000000000000000000006040518263ffffffff1660e01b815260040161081d9190612b3a565b60206040518083038186803b15801561083557600080fd5b505afa158015610849573d6000803e3d6000fd5b505050506040513d601f19601f8201168201806040525081019061086d919061234a565b15610912578073ffffffffffffffffffffffffffffffffffffffff1663c2d7bcc1610896610299565b8888886040518563ffffffff1660e01b81526004016108b89493929190612a48565b600060405180830381600087803b1580156108d257600080fd5b505af11580156108e6573d6000803e3d6000fd5b505050506040513d6000823e3d601f19601f8201168201806040525081019061090f9190612471565b92505b505b816040516109229190612a16565b604051809103902085610933610299565b73ffffffffffffffffffffffffffffffffffffffff167f8187df79ab47ad16102e7bc8760349a115b3ba9869b8cedd78996f930ac9cac3878760405161097a929190612b55565b60405180910390a4509392505050565b610992610299565b73ffffffffffffffffffffffffffffffffffffffff166109b0610a12565b73ffffffffffffffffffffffffffffffffffffffff1614610a06576040517f08c379a00000000000000000000000000000000000000000000000000000000081526004016109fd90612d46565b60405180910390fd5b610a106000610e83565b565b60008060009054906101000a900473ffffffffffffffffffffffffffffffffffffffff16905090565b610a43610299565b73ffffffffffffffffffffffffffffffffffffffff16610a61610a12565b73ffffffffffffffffffffffffffffffffffffffff1614610ab7576040517f08c379a0000000000000000000000000000000000000000000000000000000008152600401610aae90612d46565b60405180910390fd5b600073ffffffffffffffffffffffffffffffffffffffff168173ffffffffffffffffffffffffffffffffffffffff161415610b27576040517f08c379a0000000000000000000000000000000000000000000000000000000008152600401610b1e90612c66565b60405180910390fd5b610b3081610e83565b50565b600060149054906101000a900460ff1615610b83576040517f08c379a0000000000000000000000000000000000000000000000000000000008152600401610b7a90612c46565b60405180910390fd5b6001600060146101000a81548160ff021916908315150217905550610ba781610e83565b50565b60007f01ffc9a7000000000000000000000000000000000000000000000000000000007bffffffffffffffffffffffffffffffffffffffffffffffffffffffff1916827bffffffffffffffffffffffffffffffffffffffffffffffffffffffff1916149050919050565b610c1c610299565b73ffffffffffffffffffffffffffffffffffffffff16610c3a610a12565b73ffffffffffffffffffffffffffffffffffffffff1614610c90576040517f08c379a0000000000000000000000000000000000000000000000000000000008152600401610c8790612d46565b60405180910390fd5b610c9a8282610f47565b5050565b600080823b119050919050565b6000806000610cba8585611039565b91509150610cc7816110bc565b819250505092915050565b6060610cdc610299565b73ffffffffffffffffffffffffffffffffffffffff16610cfa610a12565b73ffffffffffffffffffffffffffffffffffffffff1614610d50576040517f08c379a0000000000000000000000000000000000000000000000000000000008152600401610d4790612d46565b60405180910390fd5b610d5d868686868661140d565b905095945050505050565b6060600260008381526020019081526020016000208054610d889061310d565b80601f0160208091040260200160405190810160405280929190818152602001828054610db49061310d565b8015610e015780601f10610dd657610100808354040283529160200191610e01565b820191906000526020600020905b815481529060010190602001808311610de457829003601f168201915b50505050509050919050565b6000601482610e1c9190612f92565b83511015610e5f576040517f08c379a0000000000000000000000000000000000000000000000000000000008152600401610e5690612d66565b60405180910390fd5b60006c01000000000000000000000000836020860101510490508091505092915050565b60008060009054906101000a900473ffffffffffffffffffffffffffffffffffffffff169050816000806101000a81548173ffffffffffffffffffffffffffffffffffffffff021916908373ffffffffffffffffffffffffffffffffffffffff1602179055508173ffffffffffffffffffffffffffffffffffffffff168173ffffffffffffffffffffffffffffffffffffffff167f8be0079c531659141344cd1fd0a4f28419497f9722a3daafe3b4186f6b6457e060405160405180910390a35050565b8051825114610f8b576040517f08c379a0000000000000000000000000000000000000000000000000000000008152600401610f8290612da6565b60405180910390fd5b60005b825181101561103457611021838281518110610fd3577f4e487b7100000000000000000000000000000000000000000000000000000000600052603260045260246000fd5b6020026020010151838381518110611014577f4e487b7100000000000000000000000000000000000000000000000000000000600052603260045260246000fd5b60200260200101516117c8565b808061102c90613170565b915050610f8e565b505050565b60008060418351141561107b5760008060006020860151925060408601519150606086015160001a905061106f8782858561182c565b945094505050506110b5565b6040835114156110ac5760008060208501519150604085015190506110a1868383611939565b9350935050506110b5565b60006002915091505b9250929050565b600060048111156110f6577f4e487b7100000000000000000000000000000000000000000000000000000000600052602160045260246000fd5b81600481111561112f577f4e487b7100000000000000000000000000000000000000000000000000000000600052602160045260246000fd5b141561113a5761140a565b60016004811115611174577f4e487b7100000000000000000000000000000000000000000000000000000000600052602160045260246000fd5b8160048111156111ad577f4e487b7100000000000000000000000000000000000000000000000000000000600052602160045260246000fd5b14156111ee576040517f08c379a00000000000000000000000000000000000000000000000000000000081526004016111e590612be6565b60405180910390fd5b60026004811115611228577f4e487b7100000000000000000000000000000000000000000000000000000000600052602160045260246000fd5b816004811115611261577f4e487b7100000000000000000000000000000000000000000000000000000000600052602160045260246000fd5b14156112a2576040517f08c379a000000000000000000000000000000000000000000000000000000000815260040161129990612c26565b60405180910390fd5b600360048111156112dc577f4e487b7100000000000000000000000000000000000000000000000000000000600052602160045260246000fd5b816004811115611315577f4e487b7100000000000000000000000000000000000000000000000000000000600052602160045260246000fd5b1415611356576040517f08c379a000000000000000000000000000000000000000000000000000000000815260040161134d90612c86565b60405180910390fd5b60048081111561138f577f4e487b7100000000000000000000000000000000000000000000000000000000600052602160045260246000fd5b8160048111156113c8577f4e487b7100000000000000000000000000000000000000000000000000000000600052602160045260246000fd5b1415611409576040517f08c379a000000000000000000000000000000000000000000000000000000000815260040161140090612cc6565b60405180910390fd5b5b50565b6060838573ffffffffffffffffffffffffffffffffffffffff16877f1f920dbda597d7bf95035464170fa58d0a4b57f13a1c315ace6793b9f63688b88686604051611459929190612b55565b60405180910390a460006109c45a6114719190612fe8565b905060008714156114d3576114cc868686868080601f016020809104026020016040519081016040528093929190818152602001838380828437600081840152601f19601f8201169050808301925050505050505084611987565b91506117be565b60018714156115b45760006114e6610a12565b90506115378786868080601f016020809104026020016040519081016040528093929190818152602001838380828437600081840152601f19601f8201169050808301925050505050505084611a72565b92508073ffffffffffffffffffffffffffffffffffffffff16611558610a12565b73ffffffffffffffffffffffffffffffffffffffff16146115ae576040517f08c379a00000000000000000000000000000000000000000000000000000000081526004016115a590612de6565b60405180910390fd5b506117bd565b600387141561163757600061160d8686868080601f016020809104026020016040519081016040528093929190818152602001838380828437600081840152601f19601f82011690508083019250505050505050611b59565b90508060405160200161162091906129fb565b6040516020818303038152906040529250506117bc565b600287141561178057600061169f85858080601f016020809104026020016040519081016040528093929190818152602001838380828437600081840152601f19601f8201169050808301925050505050505060208787905061169a9190612fe8565b611c1e565b9050600061170286868080601f016020809104026020016040519081016040528093929190818152602001838380828437600081840152601f19601f8201169050808301925050505050505060006020898990506116fd9190612fe8565b611c85565b90506000611711888484611da3565b90508060405160200161172491906129fb565b60405160208183030381529060405294508073ffffffffffffffffffffffffffffffffffffffff167fcf78cf0d6f3d8371e1075c69c492ab4ec5d8cf23a1a239b6a51a1d00be7ca31260405160405180910390a25050506117bb565b6040517f08c379a00000000000000000000000000000000000000000000000000000000081526004016117b290612d86565b60405180910390fd5b5b5b5b5095945050505050565b806002600084815260200190815260200160002090805190602001906117ef929190611eb4565b50817fece574603820d07bc9b91f2a932baadf4628aabcb8afba49776529c14a6104b2826040516118209190612b79565b60405180910390a25050565b6000807f7fffffffffffffffffffffffffffffff5d576e7357a4501ddfe92f46681b20a08360001c1115611867576000600391509150611930565b601b8560ff161415801561187f5750601c8560ff1614155b15611891576000600491509150611930565b6000600187878787604051600081526020016040526040516118b69493929190612af5565b6020604051602081039080840390855afa1580156118d8573d6000803e3d6000fd5b505050602060405103519050600073ffffffffffffffffffffffffffffffffffffffff168173ffffffffffffffffffffffffffffffffffffffff16141561192757600060019250925050611930565b80600092509250505b94509492505050565b6000806000807f7fffffffffffffffffffffffffffffffffffffffffffffffffffffffffffffff85169150601b8560ff1c0190506119798782888561182c565b935093505050935093915050565b60606000808673ffffffffffffffffffffffffffffffffffffffff168487876040516119b39190612a16565b600060405180830381858888f193505050503d80600081146119f1576040519150601f19603f3d011682016040523d82523d6000602084013e6119f6565b606091505b509150915081611a6557604481511015611a0f57600080fd5b60048101905080806020019051810190611a2991906124b2565b6040517f08c379a0000000000000000000000000000000000000000000000000000000008152600401611a5c9190612bc4565b60405180910390fd5b8092505050949350505050565b60606000808573ffffffffffffffffffffffffffffffffffffffff168486604051611a9d9190612a16565b6000604051808303818686f4925050503d8060008114611ad9576040519150601f19603f3d011682016040523d82523d6000602084013e611ade565b606091505b509150915081611b4d57604481511015611af757600080fd5b60048101905080806020019051810190611b1191906124b2565b6040517f08c379a0000000000000000000000000000000000000000000000000000000008152600401611b449190612bc4565b60405180910390fd5b80925050509392505050565b600081516020830184f09050600073ffffffffffffffffffffffffffffffffffffffff168173ffffffffffffffffffffffffffffffffffffffff161415611bd5576040517f08c379a0000000000000000000000000000000000000000000000000000000008152600401611bcc90612d06565b60405180910390fd5b8073ffffffffffffffffffffffffffffffffffffffff167fcf78cf0d6f3d8371e1075c69c492ab4ec5d8cf23a1a239b6a51a1d00be7ca31260405160405180910390a292915050565b6000602082611c2d9190612f92565b83511015611c70576040517f08c379a0000000000000000000000000000000000000000000000000000000008152600401611c6790612d26565b60405180910390fd5b60008260208501015190508091505092915050565b606081601f83611c959190612f92565b1015611cd6576040517f08c379a0000000000000000000000000000000000000000000000000000000008152600401611ccd90612ca6565b60405180910390fd5b8183611ce29190612f92565b84511015611d25576040517f08c379a0000000000000000000000000000000000000000000000000000000008152600401611d1c90612dc6565b60405180910390fd5b6060821560008114611d465760405191506000825260208201604052611d97565b6040519150601f8416801560200281840101858101878315602002848b0101015b81831015611d845780518352602083019250602081019050611d67565b50868552601f19601f8301166040525050505b50809150509392505050565b60008084471015611de9576040517f08c379a0000000000000000000000000000000000000000000000000000000008152600401611de090612e06565b60405180910390fd5b600083511415611e2e576040517f08c379a0000000000000000000000000000000000000000000000000000000008152600401611e2590612c06565b60405180910390fd5b8383516020850187f59050600073ffffffffffffffffffffffffffffffffffffffff168173ffffffffffffffffffffffffffffffffffffffff161415611ea9576040517f08c379a0000000000000000000000000000000000000000000000000000000008152600401611ea090612ce6565b60405180910390fd5b809150509392505050565b828054611ec09061310d565b90600052602060002090601f016020900481019282611ee25760008555611f29565b82601f10611efb57805160ff1916838001178555611f29565b82800160010185558215611f29579182015b82811115611f28578251825591602001919060010190611f0d565b5b509050611f369190611f3a565b5090565b5b80821115611f53576000816000905550600101611f3b565b5090565b6000611f6a611f6584612e4b565b612e26565b90508083825260208201905082856020860282011115611f8957600080fd5b60005b85811015611fb95781611f9f8882612158565b845260208401935060208301925050600181019050611f8c565b5050509392505050565b6000611fd6611fd184612e77565b612e26565b9050808382526020820190508260005b858110156120165781358501611ffc88826121e1565b845260208401935060208301925050600181019050611fe6565b5050509392505050565b600061203361202e84612ea3565b612e26565b90508281526020810184848401111561204b57600080fd5b6120568482856130cb565b509392505050565b600061207161206c84612ea3565b612e26565b90508281526020810184848401111561208957600080fd5b6120948482856130da565b509392505050565b60006120af6120aa84612ed4565b612e26565b9050828152602081018484840111156120c757600080fd5b6120d28482856130da565b509392505050565b6000813590506120e98161364e565b92915050565b600082601f83011261210057600080fd5b8135612110848260208601611f57565b91505092915050565b600082601f83011261212a57600080fd5b813561213a848260208601611fc3565b91505092915050565b60008151905061215281613665565b92915050565b6000813590506121678161367c565b92915050565b60008135905061217c81613693565b92915050565b60008151905061219181613693565b92915050565b60008083601f8401126121a957600080fd5b8235905067ffffffffffffffff8111156121c257600080fd5b6020830191508360018202830111156121da57600080fd5b9250929050565b600082601f8301126121f257600080fd5b8135612202848260208601612020565b91505092915050565b600082601f83011261221c57600080fd5b815161222c84826020860161205e565b91505092915050565b600082601f83011261224657600080fd5b815161225684826020860161209c565b91505092915050565b60008135905061226e816136aa565b92915050565b60006020828403121561228657600080fd5b6000612294848285016120da565b91505092915050565b6000602082840312156122af57600080fd5b600082013567ffffffffffffffff8111156122c957600080fd5b6122d5848285016120ef565b91505092915050565b600080604083850312156122f157600080fd5b600083013567ffffffffffffffff81111561230b57600080fd5b612317858286016120ef565b925050602083013567ffffffffffffffff81111561233457600080fd5b61234085828601612119565b9150509250929050565b60006020828403121561235c57600080fd5b600061236a84828501612143565b91505092915050565b60008060006040848603121561238857600080fd5b600061239686828701612158565b935050602084013567ffffffffffffffff8111156123b357600080fd5b6123bf86828701612197565b92509250509250925092565b600080604083850312156123de57600080fd5b60006123ec85828601612158565b925050602083013567ffffffffffffffff81111561240957600080fd5b612415858286016121e1565b9150509250929050565b60006020828403121561243157600080fd5b600061243f8482850161216d565b91505092915050565b60006020828403121561245a57600080fd5b600061246884828501612182565b91505092915050565b60006020828403121561248357600080fd5b600082015167ffffffffffffffff81111561249d57600080fd5b6124a98482850161220b565b91505092915050565b6000602082840312156124c457600080fd5b600082015167ffffffffffffffff8111156124de57600080fd5b6124ea84828501612235565b91505092915050565b60008060008060006080868803121561250b57600080fd5b60006125198882890161225f565b955050602061252a888289016120da565b945050604061253b8882890161225f565b935050606086013567ffffffffffffffff81111561255857600080fd5b61256488828901612197565b92509250509295509295909350565b600061257f838361268b565b905092915050565b6125908161301c565b82525050565b6125a76125a28261301c565b6131b9565b82525050565b60006125b882612f15565b6125c28185612f43565b9350836020820285016125d485612f05565b8060005b8581101561261057848403895281516125f18582612573565b94506125fc83612f36565b925060208a019950506001810190506125d8565b50829750879550505050505092915050565b61262b8161302e565b82525050565b61263a8161303a565b82525050565b6126498161303a565b82525050565b61265881613044565b82525050565b600061266a8385612f65565b93506126778385846130cb565b6126808361326a565b840190509392505050565b600061269682612f20565b6126a08185612f54565b93506126b08185602086016130da565b6126b98161326a565b840191505092915050565b60006126cf82612f20565b6126d98185612f65565b93506126e98185602086016130da565b6126f28161326a565b840191505092915050565b600061270882612f20565b6127128185612f76565b93506127228185602086016130da565b80840191505092915050565b612737816130a7565b82525050565b600061274882612f2b565b6127528185612f81565b93506127628185602086016130da565b61276b8161326a565b840191505092915050565b6000612783601883612f81565b915061278e82613288565b602082019050919050565b60006127a6602083612f81565b91506127b1826132b1565b602082019050919050565b60006127c9601f83612f81565b91506127d4826132da565b602082019050919050565b60006127ec602983612f81565b91506127f782613303565b604082019050919050565b600061280f602683612f81565b915061281a82613352565b604082019050919050565b6000612832602283612f81565b915061283d826133a1565b604082019050919050565b6000612855600e83612f81565b9150612860826133f0565b602082019050919050565b6000612878602283612f81565b915061288382613419565b604082019050919050565b600061289b601983612f81565b91506128a682613468565b602082019050919050565b60006128be601983612f81565b91506128c982613491565b602082019050919050565b60006128e1601583612f81565b91506128ec826134ba565b602082019050919050565b6000612904602083612f81565b915061290f826134e3565b602082019050919050565b6000612927601583612f81565b91506129328261350c565b602082019050919050565b600061294a601483612f81565b915061295582613535565b602082019050919050565b600061296d602683612f81565b91506129788261355e565b604082019050919050565b6000612990601183612f81565b915061299b826135ad565b602082019050919050565b60006129b3603183612f81565b91506129be826135d6565b604082019050919050565b60006129d6601d83612f81565b91506129e182613625565b602082019050919050565b6129f58161309a565b82525050565b6000612a078284612596565b60148201915081905092915050565b6000612a2282846126fd565b915081905092915050565b6000602082019050612a426000830184612587565b92915050565b6000606082019050612a5d6000830187612587565b612a6a6020830186612631565b8181036040830152612a7d81848661265e565b905095945050505050565b60006020820190508181036000830152612aa281846125ad565b905092915050565b6000602082019050612abf6000830184612622565b92915050565b6000604082019050612ada6000830185612631565b8181036020830152612aec81846126c4565b90509392505050565b6000608082019050612b0a6000830187612631565b612b1760208301866129ec565b612b246040830185612631565b612b316060830184612631565b95945050505050565b6000602082019050612b4f600083018461264f565b92915050565b60006020820190508181036000830152612b7081848661265e565b90509392505050565b60006020820190508181036000830152612b9381846126c4565b905092915050565b6000604082019050612bb0600083018561272e565b612bbd6020830184612640565b9392505050565b60006020820190508181036000830152612bde818461273d565b905092915050565b60006020820190508181036000830152612bff81612776565b9050919050565b60006020820190508181036000830152612c1f81612799565b9050919050565b60006020820190508181036000830152612c3f816127bc565b9050919050565b60006020820190508181036000830152612c5f816127df565b9050919050565b60006020820190508181036000830152612c7f81612802565b9050919050565b60006020820190508181036000830152612c9f81612825565b9050919050565b60006020820190508181036000830152612cbf81612848565b9050919050565b60006020820190508181036000830152612cdf8161286b565b9050919050565b60006020820190508181036000830152612cff8161288e565b9050919050565b60006020820190508181036000830152612d1f816128b1565b9050919050565b60006020820190508181036000830152612d3f816128d4565b9050919050565b60006020820190508181036000830152612d5f816128f7565b9050919050565b60006020820190508181036000830152612d7f8161291a565b9050919050565b60006020820190508181036000830152612d9f8161293d565b9050919050565b60006020820190508181036000830152612dbf81612960565b9050919050565b60006020820190508181036000830152612ddf81612983565b9050919050565b60006020820190508181036000830152612dff816129a6565b9050919050565b60006020820190508181036000830152612e1f816129c9565b9050919050565b6000612e30612e41565b9050612e3c828261313f565b919050565b6000604051905090565b600067ffffffffffffffff821115612e6657612e6561323b565b5b602082029050602081019050919050565b600067ffffffffffffffff821115612e9257612e9161323b565b5b602082029050602081019050919050565b600067ffffffffffffffff821115612ebe57612ebd61323b565b5b612ec78261326a565b9050602081019050919050565b600067ffffffffffffffff821115612eef57612eee61323b565b5b612ef88261326a565b9050602081019050919050565b6000819050602082019050919050565b600081519050919050565b600081519050919050565b600081519050919050565b6000602082019050919050565b600082825260208201905092915050565b600082825260208201905092915050565b600082825260208201905092915050565b600081905092915050565b600082825260208201905092915050565b6000612f9d82613090565b9150612fa883613090565b9250827fffffffffffffffffffffffffffffffffffffffffffffffffffffffffffffffff03821115612fdd57612fdc6131dd565b5b828201905092915050565b6000612ff382613090565b9150612ffe83613090565b925082821015613011576130106131dd565b5b828203905092915050565b600061302782613070565b9050919050565b60008115159050919050565b6000819050919050565b60007fffffffff0000000000000000000000000000000000000000000000000000000082169050919050565b600073ffffffffffffffffffffffffffffffffffffffff82169050919050565b6000819050919050565b600060ff82169050919050565b60006130b2826130b9565b9050919050565b60006130c482613070565b9050919050565b82818337600083830152505050565b60005b838110156130f85780820151818401526020810190506130dd565b83811115613107576000848401525b50505050565b6000600282049050600182168061312557607f821691505b602082108114156131395761313861320c565b5b50919050565b6131488261326a565b810181811067ffffffffffffffff821117156131675761316661323b565b5b80604052505050565b600061317b82613090565b91507fffffffffffffffffffffffffffffffffffffffffffffffffffffffffffffffff8214156131ae576131ad6131dd565b5b600182019050919050565b60006131c4826131cb565b9050919050565b60006131d68261327b565b9050919050565b7f4e487b7100000000000000000000000000000000000000000000000000000000600052601160045260246000fd5b7f4e487b7100000000000000000000000000000000000000000000000000000000600052602260045260246000fd5b7f4e487b7100000000000000000000000000000000000000000000000000000000600052604160045260246000fd5b6000601f19601f8301169050919050565b60008160601b9050919050565b7f45434453413a20696e76616c6964207369676e61747572650000000000000000600082015250565b7f437265617465323a2062797465636f6465206c656e677468206973207a65726f600082015250565b7f45434453413a20696e76616c6964207369676e6174757265206c656e67746800600082015250565b7f4f776e61626c653a206f776e65722063616e206f6e6c7920626520696e69746960008201527f61746564206f6e63650000000000000000000000000000000000000000000000602082015250565b7f4f776e61626c653a206e6577206f776e657220697320746865207a65726f206160008201527f6464726573730000000000000000000000000000000000000000000000000000602082015250565b7f45434453413a20696e76616c6964207369676e6174757265202773272076616c60008201527f7565000000000000000000000000000000000000000000000000000000000000602082015250565b7f736c6963655f6f766572666c6f77000000000000000000000000000000000000600082015250565b7f45434453413a20696e76616c6964207369676e6174757265202776272076616c60008201527f7565000000000000000000000000000000000000000000000000000000000000602082015250565b7f437265617465323a204661696c6564206f6e206465706c6f7900000000000000600082015250565b7f436f756c64206e6f74206465706c6f7920636f6e747261637400000000000000600082015250565b7f746f427974657333325f6f75744f66426f756e64730000000000000000000000600082015250565b7f4f776e61626c653a2063616c6c6572206973206e6f7420746865206f776e6572600082015250565b7f746f416464726573735f6f75744f66426f756e64730000000000000000000000600082015250565b7f57726f6e67206f7065726174696f6e2074797065000000000000000000000000600082015250565b7f4b657973206c656e677468206e6f7420657175616c20746f2076616c7565732060008201527f6c656e6774680000000000000000000000000000000000000000000000000000602082015250565b7f736c6963655f6f75744f66426f756e6473000000000000000000000000000000600082015250565b7f44656c65676174652063616c6c206973206e6f7420616c6c6f77656420746f2060008201527f6d6f6469667920746865206f776e657221000000000000000000000000000000602082015250565b7f437265617465323a20696e73756666696369656e742062616c616e6365000000600082015250565b6136578161301c565b811461366257600080fd5b50565b61366e8161302e565b811461367957600080fd5b50565b6136858161303a565b811461369057600080fd5b50565b61369c81613044565b81146136a757600080fd5b50565b6136b381613090565b81146136be57600080fd5b5056fea2646970667358221220f98f0ad0c40cde1179916ce25ce23ef7072870be8808b69767a1bcb7de7bbe3264736f6c63430008030033",
  "immutableReferences": {},
  "source": "// SPDX-License-Identifier: Apache-2.0\npragma solidity ^0.8.0;\n\n// modules\nimport \"./ERC725.sol\";\nimport \"./ERC725AccountCore.sol\";\n\n/**\n * @title ERC725Account\n * @dev Bundles ERC725X and ERC725Y, and ERC1271 and allows receiving native tokens.\n *\n *  @author Fabian Vogelsteller <fabian@lukso.network>\n */\n\ncontract ERC725Account is ERC725, ERC725AccountCore  {\n\n    /**\n     * @notice Sets the owner of the contract\n     * @param _newOwner the owner of the contract.\n     */\n    constructor(address _newOwner) ERC725(_newOwner){\n        \n        _registerInterface(_INTERFACE_ID_ERC725Account);\n        _registerInterface(_INTERFACE_ID_ERC1271);\n        _registerInterface(_INTERFACE_ID_LSP1);\n    }\n\n    function execute(\n        uint256 _operation,\n        address _to,\n        uint256 _value,\n        bytes calldata _data\n    ) public payable virtual override(ERC725X,ERC725XCore) onlyOwner returns(bytes memory result) {\n        result = ERC725X.execute(_operation,_to,_value,_data);\n    }\n\n    function setData(bytes32[] memory _keys, bytes[] memory _values) public virtual override(ERC725Y,ERC725YCore) onlyOwner {\n        ERC725Y.setData(_keys, _values);\n    }\n\n}\n",
  "sourcePath": "/Users/jeancavallera/Documents/Repositories/ERC725/implementations/contracts/ERC725/ERC725Account.sol",
  "compiler": {
    "name": "solc",
    "version": "0.8.3+commit.8d00100c.Emscripten.clang"
  },
  "schemaVersion": "3.4.1",
  "updatedAt": "2021-10-05T22:08:16.414Z",
  "devdoc": {
    "author": "Fabian Vogelsteller <fabian@lukso.network>",
    "details": "Bundles ERC725X and ERC725Y, and ERC1271 and allows receiving native tokens.",
    "kind": "dev",
    "methods": {
      "constructor": {
        "params": {
          "_newOwner": "the owner of the contract."
        }
      },
      "getData(bytes32[])": {
        "params": {
          "_keys": "the keys which values to retrieve"
        },
        "returns": {
          "values": "The array of data stored at multiple keys"
        }
      },
      "isValidSignature(bytes32,bytes)": {
        "params": {
          "_hash": "hash of the data signed//Arbitrary length data signed on the behalf of address(this)",
          "_signature": "owner's signature(s) of the data"
        }
      },
      "owner()": {
        "details": "Returns the address of the current owner."
      },
      "renounceOwnership()": {
        "details": "Leaves the contract without owner. It will not be possible to call `onlyOwner` functions anymore. Can only be called by the current owner. NOTE: Renouncing ownership will leave the contract without an owner, thereby removing any functionality that is only available to the owner."
      },
      "supportsInterface(bytes4)": {
        "details": "See {IERC165-supportsInterface}."
      },
      "transferOwnership(address)": {
        "details": "Transfers ownership of the contract to a new account (`newOwner`). Can only be called by the current owner."
      }
    },
    "title": "ERC725Account",
    "version": 1
  },
  "userdoc": {
    "kind": "user",
    "methods": {
      "constructor": {
        "notice": "Sets the owner of the contract"
      },
      "getData(bytes32[])": {
        "notice": "Gets array of data at multiple given `key`"
      },
      "isValidSignature(bytes32,bytes)": {
        "notice": "Checks if an owner signed `_data`. ERC1271 interface."
      }
    },
    "version": 1
  }
}